:020000040800F2
:100000001004002021020008350300083103000815
:10001000330300082D030008D5030008000000008A
:10002000000000000000000000000000390300088C
:100030002F03000800000000370300083B030008FE
:100040003B0200083B0200083B0200083B0200089C
:100050003B0200083B0200083B0200083B0200088C
:100060003B0200083B0200083B0200083B0200087C
:100070003B0200083B0200083B0200083B0200086C
:100080003B0200083B0200083B0200083B0200085C
:100090003B0200083B0200083B0200083B0200084C
:1000A0003B0200083B0200083B0200083B0200083C
:1000B0003B0200083B0200083B0200083B0200082C
:1000C0003B0200083B0200083B0200083B0200081C
:1000D0003B020008A90300083B0200083B0200089D
:1000E0003B0200083B0200083B0200083B020008FC
:1000F0003B0200083B0200083B0200083B020008EC
:100100003B0200083B0200083B0200083B020008DB
:100110003B0200083B0200083B0200083B020008CB
:100120003B0200083B0200083B0200083B020008BB
:100130003B0200083B0200083B0200083B020008AB
:100140003B0200083B0200083B0200083B0200089B
:100150003B0200083B020008000000003B020008D0
:100160003B0200083B020008000000000000000005
:100170003B0200083B0200083B02000800000000B0
:10018000000000003B0200083B0200083B020008A0
:100190003B0200080000000000000000000000001A
:1001A0000000000000000000000000003B0200080A
:1001B0003B020008000000003B02000800000000B5
:1001C000000000000000000000000000000000002F
:1001D00000000000000000003B0200083B02000895
:1001E0003B0200083B0200083B0200083B020008FB
:1001F0003B0200083B0200083B0200083B020008EB
:100200003B0200083B0200083B020008DFF80CD06C
:1002100000F07AF800480047310900081004002077
:100220000648804706480047FEE7FEE7FEE7FEE790
:10023000FEE7FEE7FEE7FEE7FEE7FEE73D03000818
:100240000D0200082DE9F05F0546002092469B460E
:1002500088460646814640241BE0284641464746DC
:10026000224600F041F853465A46C01A914110D335
:1002700011461846224600F028F82D1A67EB0108AF
:100280004F4622460120002100F01FF817EB00091D
:100290004E41201EA4F10104DFDC484631462A46C7
:1002A0004346BDE8F09F40EA01039B0703D009E005
:1002B00008C9121F08C0042AFAD203E011F8013B52
:1002C00000F8013B521EF9D27047202A04DB203A85
:1002D00000FA02F1002070479140C2F1200320FA99
:1002E00003F3194390407047202A04DB203A21FA97
:1002F00002F00021704721FA02F3D040C2F120023F
:100300009140084319467047064C074D06E0E068E7
:1003100040F0010394E8070098471034AC42F6D34C
:10032000FFF778FFF00D0008100E0008FEE7704799
:10033000FEE7FEE770477047704770471648016850
:1003400041F4700101601548016841F0010101604C
:1003500001688907FCD5114908310A6822F00302B7
:100360000A600A6812F00C0FFBD102680C4B1A40AD
:10037000026000200860094A0A49121D11600749FD
:10038000A031086005494FF41F000C310860024994
:10039000500680390860704788ED00E00038024060
:1003A000FFFFF2FE0230030010B5084C202120466A
:1003B00000F05AFC002807D0204600F043FC044916
:1003C0000968BDE81040084710BD0000001001405A
:1003D00008000020FEE702E008C8121F08C1002A3A
:1003E000FAD170477047002001E001C1121F002AB6
:1003F000FBD1704700F02CB902490A6860F307127C
:100400000A6070470838024002490A6860F38C228B
:100410000A6070470838024002490A6860F34F32A8
:100420000A6070470838024005490128086803D06F
:1004300020F030000860704740F03000FAE700001C
:10044000A43802400F4A052810D2DFE800F0030765
:100450000B101300106861F3000006E0106861F3F0
:10046000104002E0106861F31860106070470548A2
:10047000703001E003487430026861F300020260EA
:10048000704700000038024070B5044600F0D8F80C
:100490000100214804D001290AD0022908D124E012
:1004A0001E490A68520403D50968C90400D51C48CE
:1004B0001A492060983908681A4AC0F30310125C80
:1004C0002068D04060600A68164BC2F38222103B5D
:1004D0009A5C20FA02F2E260096803F10802C1F3B3
:1004E0004231515CC840A06070BD0C499C390A681B
:1004F0000A68C2F388130A68096802F00F02094EFD
:10050000C1F30241163E715C12FB01F2A0FB030134
:100510000023FFF797FECBE700127A00A0380240D5
:10052000006CDC02560D00080146002001F01F039C
:1005300001229A40044B03EB1141D1F800188A4381
:1005400000D10120704700000030024030B5002487
:100550004FF4405500E0641C1120FFF7E5FF01282F
:1005600001D0AC42F7D31120FFF7DEFF012800D005
:10057000002030BD10B5094C00F01F0301229A4045
:1005800004EB10400129D0F8001804D031EA020130
:10059000C0F8001810BD1143FAE700000030024017
:1005A00030B520B90B4C256845F480552560094CC1
:1005B0009C3C256860F396552560206861F38E1099
:1005C0002060206862F303002060206863F312401B
:1005D000206030BDA03802401248016841F001019E
:1005E000016001688907FCD50E4908310A6822F0CC
:1005F00003020A600A6812F00C0FFBD102680A4B72
:100600001A40026000200860064A0849121D116065
:100610000449A031086003494FF41F000C31086001
:100620007047000000380240FFFFF2FE0230030076
:1006300002490A6860F301020A6070470838024004
:1006400002480068C0F3810070470000083802408B
:1006500010B5042000F002FA064807490068B0FB14
:10066000F1F10648016001684FF47A72514341602C
:1006700010BD00000C00002040420F0000000020D0
:10068000026861F300020260704700002DE9F0414A
:1006900086B001212E48FFF76DFF01212D4800F0A3
:1006A000E7F8DFF8B08008F10808404600F0B6F837
:1006B000684600F055F8002401258DF80F40ADF88C
:1006C0000A4010208DF80D50ADF80800224E8DF82C
:1006D0000E408DF81150019400968DF80C408DF865
:1006E00010406946404600F067F819211B4800F0A9
:1006F000C6F8184F1C37384600F090F8684600F0EE
:100700002FF88DF80F408DF80D50ADF80A408DF898
:100710000E408DF81150ADF80840019400968DF808
:100720000C408DF810406946384600F045F80B48FB
:100730001821001D00F0A3F800214046FFF7A0FF9C
:1007400000213846FFF79CFF06B0BDE8F0810000AD
:1007500016003000006402400410014004650240AD
:100760000021016041600181418101734173817306
:10077000C173017441747047B0F1805F03D920F0F8
:100780007040024900E00249086070470466024078
:1007900004640240B0F1805F01D9054900E00549D9
:1007A0000968014201D00120704700207047000015
:1007B000006602400064024002684BF6EF731A4084
:1007C000026002680B891A4302604B7C026863F383
:1007D0000D320260CB7B026863F38B2202608B7B5D
:1007E000026863F3092202604B7B026863F3C7125D
:1007F00002600B7B026863F3861202600B7C026866
:1008000063F3451202604B89426863F30F02426052
:100810000A6882604968C16070470000016821F081
:10082000010101600021016041608160C16040F20E
:10083000FF6100EA0102C0B214230F210838B2F5AB
:10084000C16F05D2B0FBF3F080008140064807E09D
:10085000B2F5D16F07D2B0FBF3F0800081400348BE
:10086000026811430160704704640240046602405C
:10087000D0F8002161F30002C0F80021704702683F
:1008800061F30602026070474FF6FF7101600021BC
:100890008171017141710121C1717047F0B50B88FF
:1008A00000229BB229E0DC0724D00668550003240F
:1008B000AC40A64306608E790768AE403E430660B2
:1008C000466801279740BE43466046680F799740C7
:1008D0003E4346608668A6438660CE798768AE4010
:1008E0003E438660C668A643C6604C79AC40C56886
:1008F0002C43C4605B08521C92B2002BD3D1F0BDD4
:100900004B0710B5DB0E9A40CC084FF00F0101FAEF
:1009100003F106D0436A8B434362416A114341624B
:1009200010BD036A8B430362016A1143016210BD6B
:1009300000F006F8FFF75EFD00F09CF8FCE7000011
:1009400010B5FFF749FE01212048FFF713FE2048AC
:10095000016921F00701491C01611E48016821F06D
:100960000301491C016001210846FFF76BFD00BF30
:10097000FFF7ECFD0028FBD0012202239021104656
:10098000FFF70EFE01210220FFF75CFD1920FFF7A3
:10099000CBFD0128FAD10020FFF72EFD0420FFF740
:1009A0003BFD0420FFF730FD0120FFF73DFD022055
:1009B000FFF73EFEFFF744FE0228FBD10020FFF7C1
:1009C00033FDBDE8104000F007B800001C004000F7
:1009D00000700040603C024070B5FFF731FE1A49DC
:1009E0001A4C20B101280CD002280AD115E0184871
:1009F0000268520405D50068C00402D5154820607D
:100A000000E021601248983800681349C0F30310D1
:100A1000085C2168C140216070BD0D489C380268A7
:100A20000268C2F388130268006802F00F020A4EDF
:100A3000C0F30240B61F305C12FB00F2A1FB0301C1
:100A40000023FFF7FFFBDAE700127A000C0000201A
:100A5000A0380240006CDC026C0D00084FF0E02171
:100A60000428086903D020F004000861704740F0B2
:100A70000400FAE7A4B01C220CA11DA8FFF713FC88
:100A8000742211496846FFF70EFC4FF4E13000F084
:100A90001DF81B211DA800F0ADF87121684600F07B
:100AA000A9F800BF00F072F8FCE7000075617274ED
:100AB0003120646D61706F6C6C206D6F64656C20AB
:100AC000746573742E0A00007C0D00087CB5054621
:100AD00001212B48FFF74EFD4FF440140121204621
:100AE000FFF748FD01212046FFF744FD6846FFF768
:100AF000CBFE012002248DF8070000208DF80400B1
:100B00008DF8064021021F4E00918DF805006946C0
:100B10003046FFF7C3FE600200908DF8064069463C
:100B20003046FFF7BBFE072209213046FFF7E8FEFB
:100B300007220A213046FFF7E3FE134C002301226F
:100B40002946204600F096F80021204600F0D4F80F
:100B50000121204600F0EFF80121204600F0E6F8E0
:100B60000021204600F076F80021204600F06DF8C4
:100B70000121204600F073F8FFF788FD7CBD0000DE
:100B80000400440000000240001001400EB50B219B
:100B9000684600F005F80B21684600F02BF80EBD02
:100BA0002DE9F04105460C462020FFF7E5FD0F4EEC
:100BB00000213046FFF764FD0D4F0021384600F05C
:100BC00044F80A480C300560301D046001213846A5
:100BD00000F03BF801213046FFF752FD2020FFF7DF
:100BE000D9FD0028FAD0BDE8F08100001C64024065
:100BF0000010014070B5114A1060104808380160BB
:100C00000F4C0121204600F025F80C4D01210C3D30
:100C10002846FFF735FD0220FFF7BCFD0028FAD07B
:100C20000220FFF7A9FD00212846FFF729FD2046F5
:100C3000BDE87040002100F00DB8000014640240CF
:100C400000100140406880B27047426961F386122B
:100C500042617047426961F3C71242617047C268DE
:100C600061F34D32C26070470068084000D0012037
:100C7000704700002DE9FF4104461E4615460F4609
:100C80006846FFF701FC1A48844202D019488442A2
:100C900001D1029800E003980A2100EB8000400097
:100CA000B0FBF7F0B0FBF1F201FB1202B0FBF1F088
:100CB000052A00D3401CA16860F30F01A1607DB13B
:100CC000E068012D20F080500DD0E060E06840F435
:100CD0008050E060206966F30D302061BDE8FF813F
:100CE000E06840F08050E060E06820F48050F0E779
:100CF000001001400014014059B1012912D002290D
:100D00000FD1C16841F40071C160C16841F48061D4
:100D100006E0C16821F40071C160C16821F48061FE
:100D2000C1607047C16821F40071EDE7C26861F3EA
:100D30008202C2607047C26861F3C302C26070473A
:100D4000010204081020000000000102030400005A
:100D50000000010203040000000000000000010286
:100D6000030406070809010204081020000000001F
:100D7000000000000102030406070809756172748F
:100D80003120646D61706F6C6C2070696E672E0A23
:100D9000456E746572206120636861726163746579
:100DA0007220666F722074686520636F6D6D616E6E
:100DB00064206F75747075742E0A506C656173656C
:100DC00020656E74657220313120636861726163E1
:100DD000746572732C207375636820617320686575
:100DE0006C6C6F2C20776F7264212E0A000000005B
:100DF000100E00080000002010000000D6030008BC
:100E0000200E00081000002000040000E603000887
:100E100000000000000000000000000000127A0046
:040000050800020DE0
:00000001FF
