:020000040800F2
:1000000098060020AD020008F3040008EB04000885
:10001000EF040008E50400088D050008000000005A
:10002000000000000000000000000000F7040008CD
:10003000E904000800000000F5040008F9040008C5
:10004000C7020008C7020008C7020008C70200086C
:10005000C7020008C7020008C7020008C70200085C
:10006000C7020008C7020008C7020008C70200084C
:10007000C7020008C7020008C7020008C70200083C
:10008000C7020008C7020008C7020008C70200082C
:10009000C7020008C7020008C7020008C70200081C
:1000A000C7020008C7020008C7020008C70200080C
:1000B000C7020008C7020008C7020008C7020008FC
:1000C000C7020008C7020008C7020008C7020008EC
:1000D000C7020008C7020008C7020008C7020008DC
:1000E000C7020008C7020008C7020008C7020008CC
:1000F000C7020008C7020008C7020008C7020008BC
:10010000C7020008C7020008C7020008C7020008AB
:10011000C7020008C7020008C7020008C70200089B
:10012000C7020008C7020008C7020008C70200088B
:10013000C7020008C7020008C7020008C70200087B
:10014000C7020008C7020008C7020008C70200086B
:10015000C7020008C702000800000000C70200082C
:10016000C7020008C70200080000000000000000ED
:10017000C7020008C7020008C7020008000000000C
:1001800000000000C7020008C7020008C7020008FC
:10019000C70200080000000000000000000000008E
:1001A000000000000000000000000000C70200087E
:1001B000C702000800000000C7020008000000009D
:1001C000000000000000000000000000000000002F
:1001D0000000000000000000C7020008C70200087D
:1001E000C7020008C7020008C7020008C7020008CB
:1001F000C7020008C7020008C7020008C7020008BB
:10020000C7020008C7020008C702000800F002F891
:1002100000F03CF80AA090E8000C82448344AAF164
:100220000107DA4501D100F031F8AFF2090EBAE862
:100230000F0013F0010F18BFFB1A43F0010318471A
:10024000E40B0000040C0000103A24BF78C878C109
:10025000FAD8520724BF30C830C144BF04680C60CC
:10026000704700000023002400250026103A28BF14
:1002700078C1FBD8520728BF30C148BF0B60704718
:100280001FB500F0ACFD1FBD10B510BD00F0E4F8C7
:100290001146FFF7F5FF00F007FC00F016F903B474
:1002A000FFF7F2FF03BC00F073F900000948804734
:1002B00009480047FEE7FEE7FEE7FEE7FEE7FEE748
:1002C000FEE7FEE7FEE7FEE704480549054A064B60
:1002D00070470000FD0400080D020008980000208F
:1002E000980600209802002098020020704753EAE8
:1002F000020C00F069802DE9F04B4FF00006002B56
:100300001FBFB3FA83F503FA05F424FA05F65E403D
:1003100012BF1643B2FA82F502FA05F4C5F12005C0
:100320001EBF22FA05FC44EA0C04203556EA044CB0
:100330004FEA144418BF641C4FF000084FF0000946
:10034000904271EB030C39D3002919BFB1FA81F740
:1003500001FA07F6B0FA80F700FA07F6C7F12007AE
:100360001EBF20FA07FC46EA0C062037B6FBF4FC59
:10037000A7EB0507103F07F01F0BCBF120060CFA87
:100380000BFB2CFA06F644BFB3460026202FA4BF71
:100390005E464FF0000B5BEA060C08BF4FF0010B06
:1003A00019EB0B09ABFB027C48EB0608C01B06FBF4
:1003B00002CC0BFB03CC71EB0C01C1E70B460246F0
:1003C00041464846BDE8F08B13B54FF000004FF0B2
:1003D0000001AFF30080BDE81C4070470FB4044932
:1003E00010B503AA029800F009F810BC5DF814FBE0
:1003F000280000207047704770477047074B70B562
:100400000D467B4400F011F80446284600F020F821
:1004100010B14FF0FF3070BD204670BDAF05000039
:1004200001694A1C02610878704700B58FB0CDE9B8
:1004300001310021059105497944CDE903101146A8
:10044000684600F02EF80FB000BD0000E5FFFFFF8A
:10045000007B00F080007047754600F03FF8AE4624
:1004600005006946534620F00700854618B020B5C0
:10047000FFF72AFFBDE820404FF000064FF00007CD
:100480004FF000084FF0000B21F00701AC46ACE83C
:10049000C009ACE8C009ACE8C009ACE8C0098D46A9
:1004A00070472DE9F04106460024D6E90170F56851
:1004B0008046304603E04146B847641C3046A847B2
:1004C0000028F8D12046BDE8F08110B50446AFF30E
:1004D00000802046BDE81040FFF7E1BE00487047AD
:1004E0003400002000BFFEE7704700BFFEE700BFFA
:1004F000FEE7704770477047704700001F4800686C
:1005000040F470001D4908601D48006820F001009B
:10051000401C1B49086000BF19480068C0F3400038
:100520000028F9D016480830006820F0030014496C
:100530000831086000BF124808300068C0F381002D
:100540000028F8D10E4800680E4908400C490860A0
:1005500000200B49083108600B48091F0860002083
:100560000749A03108604FF41F0005490C310860AD
:100570004FF00060014980390860704788ED00E065
:1005800000380240FFFFF2FE0230030000BFFEE72A
:1005900000BF704710B500F0B7F910BD03490968F6
:1005A00060F30711014A11607047000008380240EB
:1005B0000349096860F38C21014A1160704700000B
:1005C000083802400349096860F34F31014A11605D
:1005D0007047000008380240012807D10749096820
:1005E00021F030013031054A116005E00349096806
:1005F00021F03001014A116070470000A438024028
:1006000005282BD2DFE800F0030A11182100154A53
:10061000126861F30002134B1A6020E0114A12685D
:1006200061F310420F4B1A6019E00E4A126861F331
:1006300018620C4B1A6012E00A4A7032126861F3B9
:100640000002084B70331A6009E0064A74321268DF
:1006500061F30002034B74331A6000E000BF00BF77
:1006600070470000003802402DE9FE4F04464FF06D
:100670000009CA46CB4600200290019000250026C2
:1006800000F03AF90090009820B1012812D0022819
:100690003FD112E031480068C0F3803038B12F48B4
:1006A0000068C0F3003010B12D48206001E02D48F3
:1006B000206031E02B4820602EE028489C380068FC
:1006C000C0F38050029025489C380068C0F3881918
:1006D00022489C38006800F00F0A20489C380068C7
:1006E000C0F30240204911F800B0029810B91D482B
:1006F000019001E01B4801900AFB0BFC0198A0FB54
:1007000009700146624600233846FFF7F0FD20607D
:1007100002E01448206000BF00BF1048983800680D
:10072000C0F303151148465D2068F04060600B4837
:1007300098380068C0F382250D48465D6068F04037
:10074000E060064898380068C0F342350948465DC5
:100750006068F040A060BDE8FE8F0000A038024055
:10076000006CDC0200127A00080E0008E80D000898
:10077000F80D0008000E000810B501460020094BD6
:1007800003EB1142D2F8002801F01F040123A3401B
:100790001A4001F01F040123A3409A4200D000E058
:1007A000012010BD0030024030B50024002500E0DB
:1007B000641C1120FFF7E0FF012802D0B4F5405F70
:1007C000F6D31120FFF7D8FF012801D0002500E063
:1007D0000125284630BD000010B501290FD1104B6E
:1007E00003EB1042D2F8002800F01F040123A340BD
:1007F0001A430B4C04EB1043C3F800280EE0084BDF
:1008000003EB1042D2F8002800F01F040123A3409C
:100810009A43034C04EB1043C3F8002810BD0000BA
:100820000030024030B538B90F4C246824F48054AD
:1008300004F580540C4D2C600B4C9C3C246860F3F8
:100840009654094D9C3D2C602C46246861F38E140F
:100850002C602C46246862F303042C602C46246828
:1008600063F312442C6030BDA03802401A4800687F
:1008700020F00100401C1849086000BF16480068BD
:10088000C0F340000028F9D013480830006820F079
:10089000030011490831086000BF0F4808300068A4
:1008A000C0F381000028F8D10B4800680B490840CC
:1008B0000949086000200849083108600848091FF4
:1008C000086000200449A03108604FF41F0002496D
:1008D0000C3108607047000000380240FFFFF2FE54
:1008E000023003000349096860F30101014A116005
:1008F000704700000838024002480068C0F38100D9
:10090000704700000838024010B5042000F0ACF930
:10091000074800680749B0FBF1F00749086008463E
:1009200000684FF47A7148430449086010BD000024
:100930003000002040420F00200000202400002052
:10094000002131E032280ADD194A126832235A4365
:100950004FF0E0235A61A0F1320290B206E0144A4F
:10096000126842434FF0E0235A61002000224FF00A
:10097000E0239A611A46126942F001021A6100BF2F
:100980004FF0E022116901F001021AB101F4803246
:10099000002AF5D04FF0E022126922F001024FF058
:1009A000E0231A6100229A610028CBD17047000031
:1009B0002400002070B504460D4600BF8021054884
:1009C00000F0A9F90028F9D0A1B2024800F09AF984
:1009D000204670BD001001404FF6FF7101600021FC
:1009E0008171017141710121C171704770B50A4671
:1009F00000211488A3B233E003F001046CB304684F
:100A00004E000325B540AC43046094794D00AC40E2
:100A100005682C430460446801258D40AC43446064
:100A2000446815798D402C43446084684E0003254A
:100A3000B540AC438460D4794D00AC4085682C430C
:100A40008460C4684E000325B540AC43C46054794B
:100A50004D00AC40C5682C43C4605B104C1CA1B277
:100A6000002BC9DC70BDF0B5002300244D07ED0E4E
:100A700002FA05F3CD105DB1456A4E07F70E0F2659
:100A8000BE40B5434562456A45EA030444620AE054
:100A9000056A4E07F70E0F26BE40B5430562056A8C
:100AA00045EA03040462F0BD00F018F8FFF772FD98
:100AB0004FF4E13000F0ECF806E004A0FFF78EFC04
:100AC0004FF47A70FFF73CFFF7E7000068656C6C45
:100AD0006F2C776F726421210A00000010B5FFF7B8
:100AE000C5FE01212148FFF777FE2148006920F06B
:100AF0000700401C1E4908611E48006820F00300E2
:100B0000401C1C49086001210846FFF779FD00BF21
:100B1000FFF74AFE0028FBD0022301229021104655
:100B2000FFF780FE01210220FFF76AFD00BF1920B8
:100B3000FFF722FE0128FAD10020FFF72FFD042045
:100B4000FFF740FD0420FFF733FD0120FFF744FDD0
:100B50000220FFF7C7FE00BFFFF7CEFE0228FBD141
:100B60000020FFF739FD00F007F810BD1C00400021
:100B700000700040603C02402DE9FC5F002400252D
:100B80000026A146A246A34600200190FFF7B4FE2E
:100B90000090009820B1012814D0022841D115E01E
:100BA0002B480068C0F3803040B129480068C0F38A
:100BB000003018B127482849086002E02748264934
:100BC000086032E02548244908602EE020489C381F
:100BD0000068C0F380591E489C380068C0F3881430
:100BE0001B489C38006800F00F0519489C380068C5
:100BF000C0F302401A490E5CB9F1000F02D1DFF8D0
:100C00005CA001E0DFF854A005FB06FCAAFB047021
:100C10000146624600233846FFF769FB0E4908602B
:100C200003E00E480C49086000BF00BF0848983830
:100C30000068C0F3031B0B4810F80B000190064836
:100C400000680199C84004490860BDE8FC9F0000A5
:100C5000A0380240006CDC023000002000127A0054
:100C60001E0E00080E0E0008042808D14FF0E021E7
:100C7000096941F004014FF0E022116107E04FF0F3
:100C8000E021096921F004014FF0E0221161704771
:100C90001CB5044601211848FFF79EFD01214FF4C1
:100CA0004010FFF799FD6846FFF796FE01208DF88A
:100CB000070000208DF8040002208DF806000002D5
:100CC000009000208DF8050069460C48FFF78EFE65
:100CD000072209210948FFF7C6FE00230122214609
:100CE000074800F021F80121054800F073F80121C0
:100CF000034800F00BF81CBD040044000000024053
:100D000000100140C1F3080242607047C26861F3FD
:100D10004D32C260704702461068084008B1012099
:100D200070470020FCE700002DE9FF470446884695
:100D3000164699466846FFF797FC2448844202D03D
:100D40002348844201D1029F00E0039F07EB870004
:100D50004000B0FBF8F50A20B5FBF0F100FB1150A4
:100D6000052803D20A20B5FBF0F503E00A20B5FB05
:100D7000F0F0451CA06865F30F00A06056B9E0686C
:100D800020F0805000F18050E060E06820F4805056
:100D9000E06014E0012E08D1E06820F08050E060AF
:100DA000E06820F48050E06009E0E06820F08050C6
:100DB000E060E06820F4805000F58050E060206939
:100DC00069F30D302061BDE8FF870000001001408D
:100DD00000140140C26861F3C302C26070474FF063
:100DE0004070E1EE100A70470000000000000000B3
:100DF00001020304060708090000000001020304C1
:100E00000000000001020304010204081020000099
:100E100000000000000001020304060708090102A7
:100E200004081020440E00080000002034000000D8
:100E300048020008780E0008340000206406000014
:100E400064020008000C0240000C0240000C02404A
:100E5000002000400080000003003000030030004C
:100E6000030030000000000000000000000000004F
:080E70000100000000127A00ED
:040000050800020DE0
:00000001FF
