:020000040800F2
:1000000090040020210200083D0300083903000885
:100010003B03000835030008B1030008000000009E
:100020000000000000000000000000004103000884
:1000300037030008000000003F03000843030008E6
:100040003B0200083B0200083B0200083B0200089C
:100050003B0200083B0200083B0200083B0200088C
:100060003B0200083B0200083B0200083B0200087C
:100070003B0200083B0200083B0200083B0200086C
:100080003B0200083B0200083B0200083B0200085C
:100090003B0200083B0200083B0200083B0200084C
:1000A0003B0200083B0200083B0200083B0200083C
:1000B0003B0200083B0200083B0200083B0200082C
:1000C0003B0200083B0200083B0200083B0200081C
:1000D0003B0200083B0200083B0200083B0200080C
:1000E0003B0200083B0200083B0200083B020008FC
:1000F0003B0200083B0200083B0200083B020008EC
:100100003B0200083B0200083B0200083B020008DB
:100110003B0200083B0200083B0200083B020008CB
:100120003B0200083B0200083B0200083B020008BB
:100130003B0200083B0200083B0200083B020008AB
:100140003B0200083B0200083B0200083B0200089B
:100150003B0200083B020008000000003B020008D0
:100160003B0200083B020008000000000000000005
:100170003B0200083B0200083B02000800000000B0
:10018000000000003B0200083B0200083B020008A0
:100190003B0200080000000000000000000000001A
:1001A0000000000000000000000000003B0200080A
:1001B0003B020008000000003B02000800000000B5
:1001C000000000000000000000000000000000002F
:1001D00000000000000000003B0200083B02000895
:1001E0003B0200083B0200083B0200083B020008FB
:1001F0003B0200083B0200083B0200083B020008EB
:100200003B0200083B0200083B020008DFF80CD06C
:1002100000F07EF800480047CD0A00089004002056
:100220000648804706480047FEE7FEE7FEE7FEE790
:10023000FEE7FEE7FEE7FEE7FEE7FEE74503000810
:100240000D0200082DE9F05F0546002092469B460E
:1002500088460646814640241BE0284641464746DC
:10026000224600F045F853465A46C01A914110D331
:1002700011461846224600F02CF82D1A67EB0108AB
:100280004F4622460120002100F023F817EB000919
:100290004E41201EA4F10104DFDC484631462A46C7
:1002A0004346BDE8F09F30B50B46014600202022B2
:1002B000012409E021FA02F59D4205D303FA02F573
:1002C000491B04FA02F52844151EA2F10102F1DCD3
:1002D00030BD202A04DB203A00FA02F100207047EA
:1002E0009140C2F1200320FA03F319439040704774
:1002F000202A04DB203A21FA02F00021704721FA7B
:1003000002F3D040C2F120029140084319467047E1
:10031000064C074D06E0E06840F0010394E8070052
:1003200098471034AC42F6D3FFF774FF9C0D0008D9
:10033000BC0D0008FEE77047FEE7FEE77047704718
:10034000704770471648016841F470010160154814
:10035000016841F00101016001688907FCD511497C
:1003600008310A6822F003020A600A6812F00C0FD2
:10037000FBD102680C4B1A40026000200860094A59
:100380000A49121D11600749A031086005494FF460
:100390001F000C3108600249500680390860704720
:1003A00088ED00E000380240FFFFF2FE023003005B
:1003B000FEE700000FB4054B10B503A9044A0298EC
:1003C00000F018F810BC5DF814FB0000610800088C
:1003D0000C00002002E008C8121F08C1002AFAD150
:1003E00070477047002001E001C1121F002AFBD1B5
:1003F000704700002DE9FF4F89B09B460446002559
:1004000006E025280BD05A460B999047641C6D1CBA
:1004100020780028F5D10DB02846BDE8F08F0027E0
:10042000B8460122474900E0074314F8013F203B4A
:1004300002FA03F00842F7D120782E2819D114F8D7
:10044000010F47F004072A280ED06FF02F02207802
:10045000A0F1300109290CD808EB880102EB410119
:1004600000EB0108641CF2E70A98641C50F8048B46
:100470000A9020780028CED0642808D0692806D0B9
:1004800075281ED05A460B9990476D1C58E00A9962
:100490004FF00A0901C90A91002802DA40422D21D1
:1004A00002E0390504D52B218DF82010012103E04D
:1004B000F90704D02021F7E78A4608AE0DE00021B5
:1004C000FAE70A994FF00A0901C90A91F7E7494684
:1004D000FFF7E9FE303106F8011D0028F7D1ADEB3A
:1004E000060000F12009780701D44FF00108C84543
:1004F00002DDA8EB090000E000208046002706E0AE
:1005000008A85A46C05D0B9990476D1C7F1C574543
:10051000F6DB04E030205A460B9990476D1CB8F189
:100520000001A8F10108F5DC05E016F8010B5A46B8
:100530000B9990476D1CB9F10001A9F10109F4DC98
:10054000641C65E70928010000F04CB91CB504469D
:100550000068012100F0D8F8684600F098F9012001
:100560008DF8070000218DF80410A17A8DF806108F
:10057000218900918DF805006946606800F091F9C5
:10058000E27A2189606800F07DF91CBD02490A68A1
:1005900060F307120A6070470838024002490A688F
:1005A00060F38C220A6070470838024002490A68EA
:1005B00060F34F320A60704708380240054901284D
:1005C000086803D020F030000860704740F0300029
:1005D000FAE70000A43802400F4A052810D2DFE8ED
:1005E00000F003070B101300106861F3000006E031
:1005F000106861F3104002E0106861F31860106049
:1006000070470548703001E003487430026861F3B8
:1006100000020260704700000038024070B50446D6
:1006200000F0D8F80100214804D001290AD002299D
:1006300008D124E01E490A68520403D50968C90498
:1006400000D51C481A492060983908681A4AC0F336
:100650000310125C2068D04060600A68164BC2F339
:100660008222103B9A5C20FA02F2E260096803F1F0
:100670000802C1F34231515CC840A06070BD0C4912
:100680009C390A680A68C2F388130A68096802F08C
:100690000F02094EC1F30241163E715C12FB01F2DA
:1006A000A0FB03010023FFF7CDFDCBE700127A008A
:1006B000A0380240006CDC02740D000801460020E6
:1006C00001F01F0301229A40044B03EB1141D1F8C2
:1006D00000188A4300D1012070470000003002401A
:1006E00030B500244FF4405500E0641C1120FFF7A2
:1006F000E5FF012801D0AC42F7D31120FFF7DEFF60
:10070000012800D0002030BD10B5094C00F01F03B7
:1007100001229A4004EB10400129D0F8001804D0BF
:1007200031EA0201C0F8001810BD1143FAE70000D9
:100730000030024030B520B90B4C256845F4805597
:100740002560094C9C3C256860F39655256020681F
:1007500061F38E102060206862F30300206020683F
:1007600063F31240206030BDA03802401248016897
:1007700041F00101016001688907FCD50E4908318B
:100780000A6822F003020A600A6812F00C0FFBD11B
:1007900002680A4B1A40026000200860064A0849B5
:1007A000121D11600449A031086003494FF41F0075
:1007B0000C3108607047000000380240FFFFF2FE75
:1007C0000230030002490A6860F301020A607047C0
:1007D0000838024002480068C0F3810070470000FA
:1007E0000838024010B5042000F01CFA06480749FA
:1007F0000068B0FBF1F10648016001684FF47A72BD
:100800005143416010BD00001000002040420F0025
:100810000400002030B5114C00234FF0E0211AE015
:100820006268322805D932256A434A61323880B27B
:1008300002E05043486100208B610A6942F00102E6
:100840000A610A69D50701D0D203FAD50A6922F0F4
:1008500001020A618B610028E2D130BD0400002052
:1008600070B5074D04468021284600F02CFA002878
:10087000F9D0A1B2284600F01DFA204670BD000054
:10088000001001400AB181617047816270474FF6E4
:10089000FF71016000218171017141710121C171FC
:1008A0007047F0B50B8800229BB229E0DC0724D00A
:1008B000066855000324AC40A64306608E7907689D
:1008C000AE403E430660466801279740BE434660FF
:1008D00046680F7997403E4346608668A643866027
:1008E000CE798768AE403E438660C668A643C66040
:1008F0004C79AC40C5682C43C4605B08521C92B272
:10090000002BD3D1F0BD024600201269914300D1E3
:10091000012070470246002052690A4200D001209F
:1009200070474B0710B5DB0E9A40CC084FF00F0113
:1009300001FA03F106D0436A8B434362416A1143D3
:10094000416210BD036A8B430362016A1143016275
:1009500010BD10B5044601894068FFF7D4FF0A2096
:10096000FFF758FF21896068FFF7CDFF207310BDA6
:1009700070B500240D4D06E005EB84004068FFF7DC
:10098000E5FD641CE4B22878A042F5D2074D0024AE
:100990002C3506E005EB84004068FFF7D7FD641CAA
:1009A000E4B22878A042F5D2002070BD14000020E7
:1009B00010B50A46044601894068FFF763FF2189A4
:1009C0006068FFF7A7FF207310BD000010B5064850
:1009D0004068FFF7BEFF054908700146BDE81040BA
:1009E00003A0FFF7E7BC000040000020000000204B
:1009F0006B657930207374617465203D2025640A2D
:100A00000000000070B5094C00216068FFF7D0FFBE
:100A10004FF4FA752846FFF7FDFE01216068FFF7E5
:100A2000C7FF2846BDE87040FFF7F4BE1400002061
:100A300010B5174815494160164901604903018105
:100A400001218172A0F158010A7801EB8202506005
:100A5000097811A0491CFFF7ADFC0D48144910306E
:100A600041600C49C91E01604FF4007101810021F1
:100A70008172A0F13C010A7801EB82025060097892
:100A8000BDE810400BA0491CFFF794BC00100240C9
:100A90006C000020040030006C65645F6D616E6165
:100AA0006765206E756D203D2025640A00000000FA
:100AB000000402406B65795F6D616E616765206E51
:100AC000756D203D2025640A0000000000F01CF830
:100AD000FFF73AFD4FF4E13000F0B0F806A0FFF761
:100AE00069FCFFF7A5FFFFF743FF00BFFFF78AFF91
:100AF000FFF76CFFFAE70000626F61726420696EB5
:100B00006974206F6B210A0010B5FFF72FFE0121D9
:100B10002048FFF7F9FD2048016921F00701491C31
:100B200001611E48016821F00301491C0160012197
:100B30000846FFF751FD00BFFFF7D2FD0028FBD0AC
:100B40000122022390211046FFF7F4FD012102202B
:100B5000FFF742FD1920FFF7B1FD0128FAD100206F
:100B6000FFF714FD0420FFF721FD0420FFF716FD19
:100B70000120FFF723FD0220FFF724FEFFF72AFEE6
:100B80000228FBD10020FFF719FDBDE8104000F05E
:100B900007B800001C00400000700040603C0240AC
:100BA00070B5FFF717FE1A491A4C20B101280CD076
:100BB00002280AD115E018480268520405D50068D9
:100BC000C00402D51548206000E021601248983822
:100BD00000681349C0F30310085C2168C14021601C
:100BE00070BD0D489C3802680268C2F38813026821
:100BF000006802F00F020A4EC0F30240B61F305CDC
:100C000012FB00F2A1FB03010023FFF71BFBDAE755
:100C100000127A0010000020A0380240006CDC02B4
:100C20008A0D00084FF0E0210428086903D020F065
:100C300004000861704740F00400FAE77CB5044600
:100C400001211948FFF760FD01214FF44010FFF723
:100C50005BFD6846FFF71BFE01208DF807000020B2
:100C60008DF8040002218DF8061009020F4D009145
:100C70008DF8050069462846FFF713FE0722092173
:100C80002846FFF74EFE2146094C0023012220464C
:100C900000F01EF80121204600F05CF801212046FA
:100CA00000F00CF87CBD000004004400000002408D
:100CB00000100140C1F3080141607047C26861F350
:100CC0004D32C26070470068084000D00120704774
:100CD0002DE9FF4104461E4615460F466846FFF7BC
:100CE0009DFC1A48844202D01948844201D10298DE
:100CF00000E003980A2100EB80004000B0FBF7F011
:100D0000B0FBF1F201FB1202B0FBF1F0052A00D3B7
:100D1000401CA16860F30F01A1607DB1E068012D66
:100D200020F080500DD0E060E06840F48050E0603A
:100D3000206966F30D302061BDE8FF81E06840F076
:100D40008050E060E06820F48050F0E7001001403F
:100D500000140140C26861F3C302C260704701021F
:100D6000040810200000000001020304000000003D
:100D7000010203040000000000000000010203045F
:100D80000607080901020408102000000000000006
:100D9000000001020304060708090000BC0D00085A
:100DA0000000002014000000D4030008D00D00084B
:100DB000140000207C040000E40300080000000090
:100DC00000000000000000000000000000127A0097
:040000050800020DE0
:00000001FF
