:020000040800F2
:100000008804002021020008430300083B03000885
:100010003F03000835030008DD030008000000006E
:10002000000000000000000000000000470300087E
:1000300039030008000000004503000849030008D8
:100040003B0200083B0200083B0200083B0200089C
:100050003B0200083B0200083B0200083B0200088C
:100060003B0200083B0200083B0200083B0200087C
:100070003B0200083B0200083B0200083B0200086C
:100080003B0200083B0200083B0200083B0200085C
:100090003B0200083B0200083B0200083B0200084C
:1000A0003B0200083B0200083B0200083B0200083C
:1000B0003B0200083B0200083B0200083B0200082C
:1000C0003B0200083B0200083B0200083B0200081C
:1000D0003B0200083B0200083B0200083B0200080C
:1000E0003B0200083B0200083B0200083B020008FC
:1000F0003B0200083B0200083B0200083B020008EC
:100100003B0200083B0200083B0200083B020008DB
:100110003B0200083B0200083B0200083B020008CB
:100120003B0200083B0200083B0200083B020008BB
:100130003B0200083B0200083B0200083B020008AB
:100140003B0200083B0200083B0200083B0200089B
:100150003B0200083B020008000000003B020008D0
:100160003B0200083B020008000000000000000005
:100170003B0200083B0200083B02000800000000B0
:10018000000000003B0200083B0200083B020008A0
:100190003B0200080000000000000000000000001A
:1001A0000000000000000000000000003B0200080A
:1001B0003B020008000000003B02000800000000B5
:1001C000000000000000000000000000000000002F
:1001D00000000000000000003B0200083B02000895
:1001E0003B0200083B0200083B0200083B020008FB
:1001F0003B0200083B0200083B0200083B020008EB
:100200003B0200083B0200083B020008DFF80CD06C
:1002100000F07EF8004800477D0C000888040020AC
:100220000648804706480047FEE7FEE7FEE7FEE790
:10023000FEE7FEE7FEE7FEE7FEE7FEE74D03000808
:100240000D0200082DE9F05F0546002092469B460E
:1002500088460646814640241BE0284641464746DC
:10026000224600F045F853465A46C01A914110D331
:1002700011461846224600F02CF82D1A67EB0108AB
:100280004F4622460120002100F023F817EB000919
:100290004E41201EA4F10104DFDC484631462A46C7
:1002A0004346BDE8F09F30B50B46014600202022B2
:1002B000012409E021FA02F59D4205D303FA02F573
:1002C000491B04FA02F52844151EA2F10102F1DCD3
:1002D00030BD202A04DB203A00FA02F100207047EA
:1002E0009140C2F1200320FA03F319439040704774
:1002F000202A04DB203A21FA02F00021704721FA7B
:1003000002F3D040C2F120029140084319467047E1
:10031000064C074D06E0E06840F0010394E8070052
:1003200098471034AC42F6D3FFF774FFF80F00087B
:100330001810000800BFFEE7704700BFFEE700BFCF
:10034000FEE7704770477047704700001F4800681D
:1003500040F470001D4908601D48006820F001004D
:10036000401C1B49086000BF19480068C0F34000EA
:100370000028F9D016480830006820F0030014491E
:100380000831086000BF124808300068C0F38100DF
:100390000028F8D10E4800680E4908400C49086052
:1003A00000200B49083108600B48091F0860002035
:1003B0000749A03108604FF41F0005490C3108605F
:1003C0004FF00060014980390860704788ED00E017
:1003D00000380240FFFFF2FE0230030000BFFEE7DC
:1003E0000FB4054B10B503A9044A029800F018F8A1
:1003F00010BC5DF814FB0000D909000808000020BB
:1004000002E008C8121F08C1002AFAD170477047DD
:10041000002001E001C1121F002AFBD1704700003B
:100420002DE9FF4F89B09B460446002506E02528AC
:100430000BD05A460B999047641C6D1C20780028FD
:10044000F5D10DB02846BDE8F08F0027B84601224F
:10045000474900E0074314F8013F203B02FA03F04C
:100460000842F7D120782E2819D114F8010F47F04F
:1004700004072A280ED06FF02F022078A0F1300157
:1004800009290CD808EB880102EB410100EB0108B7
:10049000641CF2E70A98641C50F8048B0A902078D8
:1004A0000028CED0642808D0692806D075281ED030
:1004B0005A460B9990476D1C58E00A994FF00A096B
:1004C00001C90A91002802DA40422D2102E03905D3
:1004D00004D52B218DF82010012103E0F90704D069
:1004E0002021F7E78A4608AE0DE00021FAE70A99D5
:1004F0004FF00A0901C90A91F7E74946FFF7D3FE11
:10050000303106F8011D0028F7D1ADEB060000F1EF
:100510002009780701D44FF00108C84502DDA8EB97
:10052000090000E000208046002706E008A85A469F
:10053000C05D0B9990476D1C7F1C5745F6DB04E0AE
:1005400030205A460B9990476D1CB8F10001A8F174
:100550000108F5DC05E016F8010B5A460B999047A7
:100560006D1CB9F10001A9F10109F4DC641C65E717
:100570000928010010B500F0D9F910BD1CB50446DA
:100580000121206800F03AF9684600F03CFA0120A9
:100590008DF8070000208DF80400A07A8DF8060081
:1005A0002089009000208DF805006946606800F001
:1005B00034FAE27A2189606800F020FA1CBD00005C
:1005C0000349096860F30711014A11607047000090
:1005D000083802400349096860F38C21014A116020
:1005E00070470000083802400349096860F34F3142
:1005F000014A11607047000008380240012807D105
:100600000749096821F030013031054A116005E0E1
:100610000349096821F03001014A11607047000068
:10062000A438024005282BD2DFE800F0030A111895
:100630002100154A126861F30002134B1A6020E092
:10064000114A126861F310420F4B1A6019E00E4A0A
:10065000126861F318620C4B1A6012E00A4A703299
:10066000126861F30002084B70331A6009E0064A11
:100670007432126861F30002034B74331A6000E0B5
:1006800000BF00BF70470000003802402DE9FE4F58
:1006900004464FF00009CA46CB4600200290019064
:1006A0000025002600F03AF90090009820B10128BA
:1006B00012D002283FD112E031480068C0F38030E8
:1006C00038B12F480068C0F3003010B12D482060C9
:1006D00001E02D48206031E02B4820602EE02848C2
:1006E0009C380068C0F38050029025489C38006810
:1006F000C0F3881922489C38006800F00F0A20488F
:100700009C380068C0F30240204911F800B00298FC
:1007100010B91D48019001E01B4801900AFB0BFC39
:100720000198A0FB09700146624600233846FFF796
:1007300089FD206002E01448206000BF00BF10481F
:1007400098380068C0F303151148465D2068F040F2
:1007500060600B4898380068C0F382250D48465DFC
:100760006068F040E060064898380068C0F34235A1
:100770000948465D6068F040A060BDE8FE8F00005B
:10078000A0380240006CDC0200127A00DA0F000888
:10079000BA0F0008CA0F0008D20F000810B50146B2
:1007A0000020094B03EB1142D2F8002801F01F048E
:1007B0000123A3401A4001F01F040123A3409A42E1
:1007C00000D000E0012010BD0030024030B5002410
:1007D000002500E0641C1120FFF7E0FF012802D093
:1007E000B4F5405FF6D31120FFF7D8FF012801D000
:1007F000002500E00125284630BD000010B5012984
:100800000FD1104B03EB1042D2F8002800F01F0468
:100810000123A3401A430B4C04EB1043C3F80028F8
:100820000EE0084B03EB1042D2F8002800F01F0442
:100830000123A3409A43034C04EB1043C3F8002860
:1008400010BD00000030024030B538B90F4C2468AC
:1008500024F4805404F580540C4D2C600B4C9C3CCB
:10086000246860F39654094D9C3D2C602C46246806
:1008700061F38E142C602C46246862F303042C6010
:100880002C46246863F312442C6030BDA03802402B
:100890001A48006820F00100401C1849086000BF99
:1008A00016480068C0F340000028F9D0134808300B
:1008B000006820F0030011490831086000BF0F48AC
:1008C00008300068C0F381000028F8D10B480068A8
:1008D0000B490840094908600020084908310860B0
:1008E0000848091F086000200449A03108604FF43F
:1008F0001F0002490C3108607047000000380240B8
:10090000FFFFF2FE023003000349096860F30101B2
:10091000014A116070470000083802400248006830
:10092000C0F38100704700000838024010B5042071
:1009300000F088FA074800680749B0FBF1F0074962
:100940000860084600684FF47A714843044908601B
:1009500010BD00000C00002040420F0000000020ED
:1009600004000020002131E032280ADD194A126813
:1009700032235A434FF0E0235A61A0F1320290B281
:1009800006E0144A126842434FF0E0235A61002007
:1009900000224FF0E0239A611A46126942F00102E8
:1009A0001A6100BF4FF0E022116901F001021AB193
:1009B00001F48032002AF5D04FF0E022126922F0D3
:1009C00001024FF0E0231A6100229A610028CBD186
:1009D000704700000400002070B504460D4600BFBB
:1009E0008021054800F085FA0028F9D0A1B202481C
:1009F00000F076FA204670BD001001400AB1816116
:100A000000E0816270474FF6FF7101600021817143
:100A1000017141710121C171704770B50A46002111
:100A20001488A3B233E003F001046CB304684E00F1
:100A30000325B540AC43046094794D00AC40056893
:100A40002C430460446801258D40AC4344604468F5
:100A500015798D402C43446084684E000325B540D1
:100A6000AC438460D4794D00AC4085682C438460ED
:100A7000C4684E000325B540AC43C46054794D00B2
:100A8000AC40C5682C43C4605B104C1CA1B2002B69
:100A9000C9DC70BD0246002013690B408B4200D0B8
:100AA00000E0012070470246002053690B400BB163
:100AB000012000E000207047F0B5002300244D071E
:100AC000ED0E02FA05F3CD105DB1456A4E07F70E43
:100AD0000F26BE40B5434562456A45EA03044462B9
:100AE0000AE0056A4E07F70E0F26BE40B5430562C1
:100AF000056A45EA03040462F0BD10B50446218985
:100B00006068FFF7C7FF0A20FFF72CFF21896068A4
:100B1000FFF7C0FF207310BD10B5002406E00E499A
:100B200051F82400FFF72AFD601CC4B20A48001FD8
:100B30000078A042F3DA002406E0084951F82400C6
:100B4000FFF71CFD601CC4B20448001F0078A042DF
:100B5000F3DA002010BD0000140000204000002047
:100B600070B504460D4621892A466068FFF746FFA6
:100B700021896068FFF797FF207370BD10B50549A4
:100B80004868FFF7BAFF0446214603A0FFF728FC98
:100B900010BD0000100000206B6579302073746177
:100BA0007465203D2025640A0000000010B5094945
:100BB00048680021FFF7D4FF4FF4FA70FFF7D2FE28
:100BC000044948680121FFF7CBFF4FF4FA70FFF7A3
:100BD000C9FE10BD1000002010B515481549486029
:100BE0001548086040030881012088721348027884
:100BF000001D40F82210001F0078411C10A0FFF7D4
:100C0000EFFB1548154948600B48C01E08604FF4BB
:100C1000007008810020887211480278001D40F899
:100C20002210001F0078411C0EA0FFF7D9FB10BD59
:100C30000010024068000020040030001000002076
:100C40006C65645F6D616E616765206E756D203DDA
:100C50002025640A00000000000402407800002003
:100C60003C0000206B65795F6D616E616765206E89
:100C7000756D203D2025640A0000000000F01CF87E
:100C8000FFF778FC4FF4E13000F0F0F806A0FFF732
:100C9000A7FBFFF7A1FFFFF73FFF03E0FFF786FF8A
:100CA000FFF76CFFFAE70000626F61726420696E03
:100CB0006974206F6B210A0010B5FFF7E9FD01216F
:100CC0002148FFF79BFD2148006920F00700401CE8
:100CD0001E4908611E48006820F00300401C1C49A2
:100CE000086001210846FFF79DFC00BFFFF76EFD7D
:100CF0000028FBD00223012290211046FFF7A4FD1B
:100D000001210220FFF78EFC00BF1920FFF746FDEE
:100D10000128FAD10020FFF753FC0420FFF764FC00
:100D20000420FFF757FC0120FFF768FC0220FFF7C3
:100D3000EBFD00BFFFF7F2FD0228FBD10020FFF71B
:100D40005DFC00F007F810BD1C0040000070004082
:100D5000603C02402DE9FC5F002400250026A146EE
:100D6000A246A34600200190FFF7D8FD009000980E
:100D700020B1012814D0022841D115E02B48006889
:100D8000C0F3803040B129480068C0F3003018B18A
:100D900027482849086002E027482649086032E0D1
:100DA0002548244908602EE020489C380068C0F39C
:100DB00080591E489C380068C0F388141B489C3832
:100DC000006800F00F0519489C380068C0F3024025
:100DD0001A490E5CB9F1000F02D1DFF85CA001E006
:100DE000DFF854A005FB06FCAAFB0470014662462E
:100DF00000233846FFF726FA0E49086003E00E4844
:100E00000C49086000BF00BF084898380068C0F36C
:100E1000031B0B4810F80B0001900648006801996D
:100E2000C84004490860BDE8FC9F0000A0380240AB
:100E3000006CDC020C00002000127A00F00F0008A9
:100E4000E00F0008042808D14FF0E021096941F0C3
:100E500004014FF0E022116107E04FF0E021096941
:100E600021F004014FF0E022116170471CB50446E7
:100E700001211848FFF7C2FC01214FF44010FFF791
:100E8000BDFC6846FFF7BFFD01208DF8070000207C
:100E90008DF8040002208DF806000002009000206A
:100EA0008DF8050069460C48FFF7B7FD07220921B8
:100EB0000948FFF701FE002301222146074800F000
:100EC00021F80121054800F073F80121034800F0E2
:100ED0000BF81CBD0400440000000240001001405B
:100EE000C1F3080242607047C26861F34D32C260CC
:100EF000704702461068084008B101207047002082
:100F0000FCE700002DE9FF4704468846164699464F
:100F10006846FFF7BBFB2448844202D02348844242
:100F200001D1029F00E0039F07EB87004000B0FB68
:100F3000F8F50A20B5FBF0F100FB1150052803D2AB
:100F40000A20B5FBF0F503E00A20B5FBF0F0451CE4
:100F5000A06865F30F00A06056B9E06820F08050EB
:100F600000F18050E060E06820F48050E06014E020
:100F7000012E08D1E06820F08050E060E06820F4A5
:100F80008050E06009E0E06820F08050E060E068B8
:100F900020F4805000F58050E060206969F30D3046
:100FA0002061BDE8FF8700000010014000140140EF
:100FB000C26861F3C302C260704700000000000015
:100FC00000000102030406070809000000000102F6
:100FD00003040000000001020304010204081020C1
:100FE00000000000000000000102030406070809D9
:100FF0000102040810200000181000080000002062
:101000001000000000040008281000081000002054
:101010007804000010040008000000000000000038
:081020000000000000127A003C
:040000050800020DE0
:00000001FF
